:020000040800F2
:1000000000000220910E0008E90C0008EB0C00082B
:10001000ED0C0008EF0C0008F10C000800000000D7
:10002000000000000000000000000000F30C0008C9
:10003000F50C000800000000F70C0008F90C00089F
:10004000E10E0008E10E0008E10E0008E10E0008D4
:10005000E10E0008E10E0008E10E0008E10E0008C4
:10006000E10E0008E10E0008E10E0008E10E0008B4
:10007000E10E0008E10E0008E10E0008E10E0008A4
:10008000E10E0008E10E0008E10E0008E10E000894
:10009000E10E0008E10E0008E10E0008E10E000884
:1000A000E10E0008E10E0008E10E0008E10E000874
:1000B000E10E0008E10E0008E10E0008E10E000864
:1000C000E10E0008E10E0008E10E0008E10E000854
:1000D000E10E0008E10E0008E10E0008E10E000844
:1000E000E10E0008E10E0008E10E0008E10E000834
:1000F000E10E0008E10E0008E10E0008E10E000824
:10010000E10E0008E10E0008E10E0008E10E000813
:10011000E10E0008E10E0008E10E0008E10E000803
:10012000E10E0008E10E0008E10E0008E10E0008F3
:10013000E10E0008E10E0008E10E0008E10E0008E3
:10014000E10E0008E10E0008E10E0008E10E0008D3
:10015000E10E0008E10E0008E10E0008E10E0008C3
:10016000E10E0008E10E0008E10E0008E10E0008B3
:10017000E10E0008E10E0008E10E0008000000009A
:08018000E10E0008E10E000889
:10018800044B05481B1A062B02D9044B03B1184728
:10019800704700BF7B0000207800002000000000AE
:1001A80005490648091A891001EBD171491002D096
:1001B800034B03B1184770477800002078000020EF
:1001C8000000000010B5064C237843B9FFF7D8FFAC
:1001D800044B13B10448AFF300800123237010BD12
:1001E8007800002000000000E40E000808B5084B65
:1001F8001BB108490848AFF300800848036813B9E1
:10020800BDE80840CCE7064B002BF9D09847F7E744
:10021800000000007C000020E40E000878000020A8
:100228000000000070B50F4E0F4D761BB61018BFBA
:10023800002405D0013455F8043B9847A642F9D16B
:100248000A4E0B4D761B00F049FEB61018BF00246D
:1002580006D0013455F8043B9847A642F9D170BD41
:1002680070BD00BF000F0008000F0008040F000851
:10027800000F0008024B0146186800F0A1B800BF43
:1002880000000020024B0146186800F051B800BF7A
:100298000000002070B4860746D0541E002A41D0C2
:1002A800CAB2034602E014F1FF343BD303F8012B32
:1002B8009D07F8D1032C2ED9CDB245EA05250F2C80
:1002C80045EA054519D903F110022646103E0F2EBE
:1002D80042F8105C42F80C5C42F8085C42F8045C96
:1002E80002F11002F2D8A4F1100222F00F0204F079
:1002F8000F041032032C13440DD91E462246043A2B
:10030800032A46F8045BFAD8221F22F003020432BB
:10031800134404F003042CB1C9B21C4403F8011BB4
:100328009C42FBD170BC704714460346C2E700BF2D
:1003380091B151F8043C0439002BB8BFC9181F4BC0
:100348001A68FAB18A4230B40AD908680C18A2426D
:1003580026D04A60196030BC70478B4203D81A46D1
:100368005368002BF9D1146815198D420DD006D8A1
:1003780008680C189C4219D04B605160EBE70C23BD
:100388000360E8E74A601960704709680C4411196E
:1003980099421460DFD10ACB0C4453601460DAE749
:1003A800146852684A6020440860D3E71C685B6898
:1003B8004B60204408605160CDE700BF94000020E6
:1003C80070B5CC1C24F0030408340C2C38BF0C2462
:1003D800002C06463BDBA14239D8274D296851B18C
:1003E8000A68121B04D436E01A68121B1AD519467B
:1003F8004B68002BF8D16968002937D02146304670
:1004080000F03CF8431C22D0C31C23F00305A8428B
:1004180005D0291A304600F031F8013017D02C6089
:100428002B4604E00B2A0DD91A6013441C6003F113
:100438000B0020F007001A1D821A02D05142995071
:1004480070BD70BD8B420ED05A684A60EFE70C232E
:100458003360002070BD0B2A03D84A680B462A6017
:10046800E5E70B46E0E70A460B46F8E7304600F0BA
:1004780005F86860C2E700BF9400002038B5074C53
:10048800002305460846236000F00AF8431C00D004
:1004980038BD2368002BFBD02B6038BDA00000209E
:1004A800044A05491368002B08BF0B46184410601E
:1004B800184670479C000020A800002010B4294B63
:1004C8009B6803F00C03042B23D0082B24D013B112
:1004D800254B036001E0244B0360224CA368C3F35F
:1004E80003132249CB5CDAB20368D3404360A268A5
:1004F800C2F382228A5CD2B223FA02F28260A26834
:10050800C2F342328A5CD2B2D340C3605DF8044B76
:100518007047174B0360E0E7124B5A685B6803F0BB
:100528003F0312F4800F12D0114AB2FBF3F20D4BC5
:100538005B68C3F3881303FB02F30A4A5268C2F3E9
:10054800014201325200B3FBF2F30360C5E7064AE9
:10055800B2FBF3F2034B5B68C3F3881303FB02F3AC
:10056800EBE700BF003802400024F40064000020DC
:1005780000127A0070B584B004460D464668B6B2DB
:1005880026F03F06B6B26846FFF798FF02992C4B53
:10059800A3FB01239B0C1E436660226822F0010224
:1005A8001204120C22606A68264882421FD8520040
:1005B800B1FBF2F292B2032A00D80422013323627B
:1005C800E261236843F00103236023689BB223F4AC
:1005D800816323F00203AA68E9690A4392B21343CC
:1005E80023602B6A2A691343A36004B070BDEE68C8
:1005F8004BF6FF7086421DD002EB820202EB8202AC
:10060800B1FBF2F292B242F48042C2F30B0109B993
:1006180042F0010242F400424FF4967103FB01F3E9
:10062800094981FB0301DB17C3EBA11301339BB21B
:100638002362C5E702EB4202B1FBF2F292B2E4E7B1
:1006480083DE1B43A0860100D34D621031B90368D5
:1006580023F480731B041B0C03607047036843F486
:100668008073036070474369826943EA024323F059
:100678007F4331EA030301D001207047002070470F
:100688001AB901F0FE010161704741F00101FAE772
:1006980031B9036823F480631B041B0C03607047A3
:1006A800036843F48063036070470161704731B9A0
:1006B800036823F400731B041B0C03607047036872
:1006C80043F400730360704782B0002301930093E2
:1006D80000900B0F019321F07F41019B4BB1009BD0
:1006E80014330093009B1B68194207D1002002B005
:1006F8007047090C009B18330093F3E70120F6E7D5
:1007080031B9036823F001031B041B0C0360704715
:10071800036843F00103036070470069C0B2704783
:1007280070B506460C46154601211648FFF78EFFA0
:1007380015491448FFF797FF0028F9D000223146E1
:100748001048FFF79DFF11490E48FFF78CFF00285E
:10075800F9D029460B48FFF7A8FF0D490948FFF7CC
:1007680082FF0028F9D021780648FFF79EFF084944
:100778000448FFF778FF0028F9D001210148FFF766
:1007880096FF70BD0054004001000300820007007E
:10079800840007002DE9F04105460F4690461C46A7
:1007A8004FF400312F48FFF78FFF0028F8D10121BF
:1007B8002C48FFF74BFF2C492A48FFF754FF002825
:1007C800F9D0002229462748FFF75AFF274925482C
:1007D800FFF749FF0028F9D0224E01213046FFF7E4
:1007E8008FFF41463046FFF760FF21491D48FFF75C
:1007F8003AFF0028F9D001211A48FFF727FF1A49C4
:100808001848FFF730FF0028F9D00122294615487B
:10081800FFF736FF17491348FFF725FF0028F9D0DF
:10082800CCB1012C0DD014490E48FFF71CFF00284D
:10083800F6D00C48FFF771FF07F8010B013CA4B292
:10084800EEE7084D00212846FFF722FF0121284640
:10085800FFF72DFFE7E701210248FFF719FFBDE881
:10086800F08100BF0054004001000300820007002F
:10087800840007000200030040000300F0B583B0C5
:1008880005460C4616461F4601230A460DF1070188
:10089800FFF780FF0121B9400139F31B5A1C914031
:1008A8009DF820309340DBB20B409DF8072022EAE8
:1008B80001010B438DF8073022460DF10701284648
:1008C800FFF72EFF03B0F0BD00B583B000900323FF
:1008D80002226B21D020FFF7D1FF03B05DF804FBA3
:1008E80000B583B00090022304221B21D020FFF71B
:1008F800C5FF03B05DF804FB00B583B00090022388
:1009080004221C21D020FFF7B9FF03B05DF804FBD7
:10091800F0B583B005460C4616461F4601230A4625
:100928000DF10701FFF736FF7FB9012202FA06F33E
:100938009DF8072022EA030202A901F8012D2246A8
:100948002846FFF7EDFE03B0F0BD012202FA06F3D8
:100958009DF807201A43D2B2EEE708B503460622EF
:100968006B21D020FFF7D4FF08BD08B50120FFF7A1
:10097800ABFF0020FFF7B4FF0020FFF7BDFF00200A
:10098800FFF7EBFF08BD000010B582B0244C2368C8
:1009980023F0606343F0007323604FF48070FFF727
:1009A80069FC204BA360E06063681B0C1B0443F4E4
:1009B80080736360236843F480632360236843F093
:1009C80001032360236843F010032360164B1A6B5E
:1009D80042F400121A631B6B03F400130193019B8A
:1009E800124BDA68C2F30222C2F10703042B28BFB4
:1009F80004231946131D062B10D9033A01238B40F3
:100A0800013B03F0040393401B01DBB2084A82F860
:100A18000B334FF40063136002B010BD0022EDE702
:100A280010600240105400400038024000ED00E021
:100A380000E100E030B593B0242200210DEB020064
:100A4800FFF728FC0025039504950595069507955D
:100A58000895224C236B43F002032363236B03F0B6
:100A680002030293029BC0230393022304930323EC
:100A780005930123069307930423089303A91848B1
:100A880000F037F9236C43F400132364236C03F458
:100A980000130193019BA4F5F234E36823F00103EA
:100AA800E360236823F040032360236823F0800376
:100AB800236009950B4B0A930C950D954FF48063B1
:100AC8000E934FF480430F9309A92046FFF752FD78
:100AD800E36823F0FE03E36013B030BD0038024042
:100AE80000040240A086010010B52F4A136823F0C5
:100AF800070343F0050313602B4B1B6803F0070340
:100B0800052BF9D1294A136843F48043136002F591
:100B1800E432136823F0F80343F08003136013688A
:100B280043F001031360224B1B6813F0020FFAD045
:100B38001F4A51681F4B0B4043F4285343F00803E6
:100B48005360536823F440335360136843F0807351
:100B58001360174B1B6813F0007FFAD0144B9A6888
:100B680022F0F0029A609A6822F4E05242F4A0520D
:100B78009A609A6822F4604242F400429A609A6845
:100B880022F0030242F002029A60094B9B6803F0CC
:100B98000C03082BF9D1084C204600F03FF92046F9
:100BA80000F062F910BD00BF003C02400070004038
:100BB800003802400080BFFF007A030A00B585B004
:100BC800374B1A6B42F008021A631A6B02F00802DC
:100BD8000392039A334C21684FF4804292FAA2F0B0
:100BE800B0FA80F04000032505FA00F021EA000180
:100BF80092FAA2F2B2FA82F25200012000FA02F24C
:100C08000A4322605A6C42F480425A645A6C02F4D5
:100C180080420292029A1A6C42F080521A641B6C4B
:100C280003F080530193019B1F4BD96821F4E061C5
:100C38000904090C1D4A0A43DA60DB68C3F302237E
:100C4800C3F10701042928BF04211A1D062A01D966
:100C5800DA1E00E0002201238B40013B03F00F0362
:100C680093401B01DBB2104A82F82330FFF73CFFA8
:100C780000F01EF8FFF779FEFFF786FEFFF7DAFEB1
:100C8800084C4FF48043A3614FF47A7000F0D6F813
:100C98004FF08043A3614FF47A7000F0CFF8EFE78C
:100CA80000380240000C024000ED00E00003FA05A5
:100CB80082B00A4B1A6B42F004021A631A6B02F0F4
:100CC80004020192019A1A6B42F080021A631B6BAC
:100CD80003F080030093009B02B070470038024085
:100CE800FEE7FEE7FEE7FEE7FEE77047704770475E
:100CF8007047F0B50C6894FAA4F4B4FA84F44AE0A6
:100D08008E68826893FAA3F5B5FA85F56D00032716
:100D180007FA05F522EA050293FAA3F5B5FA85F56F
:100D28006D0006FA05F52A438260CD68426822EA1A
:100D3800030205FB03F52A43426038E04D69466A21
:100D48001A0A92FAA2F7B7FA87F7BF004FF00F0E08
:100D58000EFA07F726EA070692FAA2F2B2FA82F228
:100D6800920005FA02F2324342624D68026893FA31
:100D7800A3F6B6FA86F67600032707FA06F622EAFD
:100D8800060293FAA3F3B3FA83F35B0005FA03F3BD
:100D98001343036001340B6833FA04F23BD0012299
:100DA800A2401340F6D04A68013A012AA8D90E6930
:100DB800C26893FAA3F5B5FA85F56D00032707FA1B
:100DC80005F522EA050293FAA3F5B5FA85F56D0053
:100DD80006FA05F52A43C2604A68022AC5D193FA81
:100DE800A3F2B2FA82F2072AA8D84E69026A93FAE5
:100DF800A3F5B5FA85F5AD000F2707FA05F522EA40
:100E0800050293FAA3F5B5FA85F5AD0006FA05F5DE
:100E18002A430262A9E70020F0BD0000054BA3FBAE
:100E2800003080090138044B586000229A6005227E
:100E38001A607047D34D621010E000E082B0094B91
:100E48001B680193019BB0F1FF3F00D0013030B126
:100E5800044B1B6813F4803FF9D00138F7E702B060
:100E6800704700BF10E000E0014B1860704700BFFA
:100E780074000020034AD2F8883043F47003C2F8A3
:100E88008830704700ED00E0DFF834D00D480E4997
:100E98000E4A002302E0D458C4500433C4188C42CC
:100EA800F9D30B4A0B4C002301E013600432A24231
:100EB800FBD3FFF7DFFFFFF7B5F9FFF77FFE7047BA
:100EC800000002200000002078000020080F000821
:100ED80078000020A4000020FEE70000F8B500BF5D
:100EE800F8BC08BC9E467047F8B500BFF8BC08BC03
:040EF8009E4670475B
:040EFC0043000000AF
:040F0000F5010008EF
:040F0400CD01000813
:100F080004000020000000000000000000000000B5
:100F180000000000000000000000000000000000C9
:100F280000000000FC0E00080000000000000000A7
:100F380000000000000000000000000000000000A9
:100F48000000000000000000000000000000000099
:100F58000000000000000000000000000000000089
:100F68000000000000000000010203040102030465
:080F7800060708090024F4003B
:0400000508000E9150
:00000001FF
